:100000000C94E2010C940B020C940B020C940B0266
:100010000C940B020C940B020C940B020C940B022C
:100020000C940B020C940B020C940B020C940B021C
:100030000C940B020C940B020C940A1C0C940B02F3
:100040000C940B020C940B020C940B020C940B02FC
:100050000C940B020C940B020C940B020C940B02EC
:100060000C940B020C940B020C940B020C940B02DC
:100070000C940B020C940B020C940B020C940B02CC
:100080000C940B020C940B020C940B020C940B02BC
:100090000C940B020C940B020C940B020C940B02AC
:1000A0000C940B020C940B020C940B020C940B029C
:1000B0000C940B020C940B020C940B020C940B028C
:1000C0000C940B020C940B020C940B020C940B027C
:1000D0000C940B020C940B020C940B020C940B026C
:1000E0000C940B020C940B020C940B020C940B025C
:1000F0000C940B020C940B020C940B020C940B024C
:100100000C940B020C940B020C940B020C940B023B
:100110000C940B020C940B020C940B020C940B022B
:100120000C940B020C940B020C940B020C940B021B
:100130000C940B020C94C2300C940B020C940B0226
:100140000C940B020C940B020C940B020C940B02FB
:100150000C940B020C940B020C940B020C940B02EB
:100160000C940B020C940B020C940B020C940B02DB
:100170000C940B020C940B020C940B020C940B02CB
:100180000C940B020C940B020C940B020C940B02BB
:100190000C940B020C940B020C940B020C940B02AB
:1001A0000C940B020C940B020C940B020C940B029B
:1001B0000C9435310C940B020C940B020C940B0232
:1001C0000C940B020C940B020C940B020C940B027B
:1001D0000C940B020C940B020C940B020C940B026B
:1001E0000C940B020C940B020C940B020C940B025B
:1001F0000C940B020C940B020C940B02F927F927B8
:10020000F92746282E284328F927F92746282E289B
:1002100007634236B79BD8A71A39685618AEBAABEF
:10022000558C1D3CB7CC5763BD6DEDFD753EF61783
:100230007231BF000000803F08000000BE922449D8
:10024000123EABAAAA2ABECDCCCC4C3E0000008008
:10025000BEABAAAAAA3E00000000BF000000803F7B
:100260000000000000084178D3BB4387D1133D193B
:100270000E3CC3BD4282AD2B3E68EC8276BED98F68
:10028000E1A93E4C80EFFFBE01C4FF7F3F000000AC
:1002900000000C9446280C9443280C94F5190C94F7
:1002A000A42D0C941F200C943D270C94AD290C9484
:1002B000CA280C94D4320C94F9270C942E280C9450
:1002C000F02A6E616E00696E660000407A10F35A83
:1002D00000A0724E18090010A5D4E80000E8764886
:1002E000170000E40B54020000CA9A3B000000E132
:1002F000F505000080969800000040420F000000C5
:10030000A08601000000102700000000E8030000A4
:1003100000006400000000000A000000000001006E
:10032000000000002C76D888DC674F0823DFC1DF8F
:10033000AE59E1B1B796E5E3E453C63AE651997692
:1003400096E8E6C28426EB898C9B62ED407C6FFCCC
:10035000EFBC9C9F40F2BAA56FA5F490055A2AF70E
:100360005C936B6CF9676DC11BFCE0E40D47FEF517
:1003700020E6B500D0ED902E03009435770500807F
:10038000841E080000204E0A000000C80C333333DE
:10039000330F986E12831141EF8D2114893BE6557E
:1003A00016CFFEE6DB18D1844B381BF77C1D901D61
:1003B000A4BBE424203284725E228100C9F124ECC3
:1003C000A1E53D2711241FBECFEFCDBFDFE3DEBF88
:1003D00000E00CBFE3E3FEE28AEA90E48193E030C0
:1003E000F907E0F310E2A0E0B0E2E0E1F5E800E0B8
:1003F0000BBF02C007900D92A23CB107D9F72EE2C5
:10040000A2ECB0E201C01D92A333B207E1F70E9453
:1004100032300C9486420C9400002F923F924F92FF
:100420005F926F927F928F929F92AF92BF92CF9284
:10043000DF92EF92FF920F931F93CF93DF93DC0134
:100440001B012A01F901102F8C91808311968C9148
:100450001197818312968C911297828313968C91B7
:100460001397838314968C911497848315968C919B
:100470001597858316968C9116978F7086831782B1
:100480002C9111963C91119712964C9112971396BC
:100490005C91139714966C91149715967C9115970F
:1004A00016968C91169717969C91179704E30E94C5
:1004B0002240822E932E340187E07822E201688266
:1004C00079826114710449F41082118212821382BC
:1004D000148215821682178208C0DFEF6D16D7E0EE
:1004E0007D0619F086818061868320813181428179
:1004F00053816481758186819781012F0E94074015
:1005000020833183428353836483758386839783F7
:100510002C9111963C91119712964C91129713962B
:100520005C91139714966C91149715967C9115977E
:1005300016968C91169717969C910FE30E94224075
:10054000F1012083DF91CF911F910F91FF90EF90E8
:10055000DF90CF90BF90AF909F908F907F906F90E3
:100560005F904F903F902F9008952F923F924F921F
:100570005F926F927F928F929F92AF92BF92CF9233
:10058000DF92EF92FF920F931F93CF93DF9300D0F0
:100590001F92CDB7DEB75C0169836A01D901EC9186
:1005A0001196FC9111971296BC91BC83D9011396B8
:1005B000BC91BA83D9011496BC91BB83D90115961D
:1005C000FC90159716961C9116971796EC902E2F67
:1005D0003F2F4C815A816B817F2D812F9E2DA0E072
:1005E0000E94654009F41CC120E030E040E050E08A
:1005F00060E0707E0E94654001F52E2F3F2F4C81F8
:100600005A816B817F2D812F9E2D08E00E9407402B
:10061000E22FF32F4C835A836B83F72E182FE92E8A
:10062000B8E0CB1AD108707E20E030E040E050E026
:1006300060E0A0E00E94654001F320E030E040E08F
:1006400050E060E070E0812F807F9E2DA0E00E944E
:10065000654009F52E2F3F2F4C815A816B817F2DEC
:10066000812F9E2D01E00E940740E22FF32F4C8343
:100670005A836B83F72E182FE92E21E0C21AD10876
:1006800020E030E040E050E060E070E0807FA0E0FB
:100690000E946540F9F220E030E040E050E060E088
:1006A00070E080E09E2DA0E00E94654049F41AC1F0
:1006B000E82DF22D3C824A825B82F62C172DE92C24
:1006C0002E2F3F2F4C815A816B817F2D812F9E2DA4
:1006D00004E00E942240822E232E342E452E562ED8
:1006E000672E782E992E84E0C80ED11C20E030E0D1
:1006F00040E050E060E070E080E0992DA0E00E94D2
:100700006540B1F6872D807E0E94654031F52E2F21
:100710003F2F4C815A816B817F2D812F9E2D03E0CD
:100720000E9422402170E82DF22D3C824A825B8299
:10073000F62C172DE92C36C08E2E2F2E3C804A80A9
:100740005B806F2C712E9E2C08C08E2E2F2E3C802D
:100750004A805B806F2C712E9E2C282D322D432DCC
:10076000542D652D762D872D992D01E00E94224074
:10077000E22FF32F4C835A836B83F72E182FE92E29
:100780009FEFC91AD90A20E030E040E050E060E075
:1007900070E0812F807E9E2DA0E00E946540A9F62A
:1007A000282D21702223C1F12E2F3F2F4C815A81F9
:1007B0006B817F2D812F9E2DA1E00E944740422E0C
:1007C000532E642E752E862E972E082FE22FF32F90
:1007D0004C835A836B83F72E182F20E030E040E0E3
:1007E00050E060E070E0807EA0E00E946540A1F0F3
:1007F000242D352D462D572D682D792D802F01E084
:100800000E942240E22FF32F4C835A836B83F72EF2
:10081000182FAFEFCA1ADA0A1C141D044CF01BC0C3
:10082000BFEFCB16B7E0DB0604F5C12CD12C23C0FB
:100830002FEFC21627E0D206F4F0E0E0F0E01C82D1
:100840001A821B82F12C10E00F2ECC24CA94F7E000
:10085000DF2EF02D10C0E0E0F0E01C821A821B8237
:10086000F12C10E0C12CD12C06C00F2ECC24CA9440
:10087000F7E0DF2EF02D298130E040E050E060E02D
:1008800070E080E090E00FE30E940740A92F1F7006
:10089000E22BEF2EE32ABC81B42B9A80952A8B8021
:1008A000862AF72A182B9D2D990F990B2C2D3D2D5B
:1008B000492F592F692F792F892F04E30E94074070
:1008C0002E2BF50120833E2931834B2B428359295E
:1008D0005383682964837F297583812B86839A2BB0
:1008E00097830FC020E030E040E050E060E070E02F
:1008F000812F807E9E2DA0E00E94654009F01CCFD4
:100900008BCF2496CDBFDEBFDF91CF911F910F918A
:10091000FF90EF90DF90CF90BF90AF909F908F901F
:100920007F906F905F904F903F902F900895AF927F
:10093000BF92CF92DF92EF92FF920F931F93CF93CC
:10094000DF937C01DC01DC901196AC90119712963C
:10095000BC91FC01C381D4811581C680078120E050
:1009600030E040E050E060E070E080E0902FA0E0F8
:100970000E94654009F078C0B12C2D2D3A2D4B2FE7
:100980005C2F6D2F712F8C2D902F08E00E94074057
:10099000D22EA32EB42FC52FD62F172FC82E092F36
:1009A000F8E0BF0E20E030E040E050E060E070E0B2
:1009B00080E0A0E00E94654091F0F701D082A18222
:1009C000B283C383D4831583C682978390780E94B1
:1009D000654009F058C0FFE3FB157CF454C080E487
:1009E000B812CBCFF701D082A182B283C383D48364
:1009F0001583C682978347C0B12C2D2D3A2D4B2FDE
:100A00005C2F6D2F712F8C2D902F01E00E940740DD
:100A1000D22EA32EB42FC52FD62F172FC82E092FB5
:100A2000B39420E030E040E050E060E070E080E02F
:100A30009078A0E00E94654051F0F701D082A18239
:100A4000B283C383D4831583C68207831CC0FFE3AC
:100A5000FB159CF6F701D082A182B283C383D483B5
:100A60001583C68207830FC020E030E040E050E0ED
:100A700060E070E080E0902F9078A0E00E946540F8
:100A800009F4BACFB12C8B2DDF91CF911F910F912B
:100A9000FF90EF90DF90CF90BF90AF9008952F928E
:100AA0003F924F925F926F927F928F929F92AF92FE
:100AB000BF92CF92DF92EF92FF920F931F93CF934B
:100AC000DF93CDB7DEB7A197CDBFDEBFDC01FB0161
:100AD000342E8C918E8311968C9111978F83129660
:100AE0008C911297888713968C9113978987149607
:100AF0008C9114978C8F15968C9115978D8F1696D7
:100B00008C9116978E8F17968C918F8F2E813F81A7
:100B1000488559856C8D7D8D8E8D9F8D00E20E945C
:100B2000224029A338A34A875B876C877D878E87FD
:100B30009F8740805180628023808481888F858157
:100B4000898F86818A8F87818B8F242D352D462D25
:100B5000522D688D798D8A8D9B8D0E942240288B25
:100B6000398B4A8B5B8B6C8B7D8B8E8B9F8BA9A07B
:100B7000B8A0CA84DB84EC84FD840E851F85242DF7
:100B8000352D462D522D60E070E080E090E00E940F
:100B90009E3F00E20E94224029833A834B835C837C
:100BA0006D83772E882E992EA888B988CA88DB880D
:100BB000EC88FD880E891F892E813F8148855985E3
:100BC00060E070E080E090E00E949E3F00E20E94C2
:100BD0002240A22EB32EC42ED52EE62EF72E082F9D
:100BE000192F29813A814B815C816D81772D882D68
:100BF000992D0E943E4029833A834B835C836D8309
:100C0000772E882E992EA888B988CA88DB88EC8828
:100C1000FD880E891F8929A138A14A855B856C85CD
:100C20007D858E859F850E949E3FA22EB32EC42E69
:100C3000D52EE62EF72E082F192F29813A814B81C8
:100C40005C816D81772D882D992D0E943E40922EDA
:100C50003A834983B52FF62FE72F782E892E30FE61
:100C600026C02E813F81488559856C8D7D8D8E8D66
:100C70009F8DA0E00E946540D4F4292D3A814981DE
:100C80005B2F6F2F7E2F872D982DA42CB52CC62C73
:100C9000D22CE88CF98C0A8D1B8D0E945340922E29
:100CA0003A834983B52FF62FE72F782E892E31FE10
:100CB00026C0242D352D462D522D688D798D8A8D97
:100CC0009B8DA0E00E946540D4F4292D3A81498192
:100CD0005B2F6F2F7E2F872D982DAE80BF80C8840D
:100CE000D984EC8CFD8C0E8D1F8D0E945340922E6A
:100CF0003A834983B52FF62FE72F782E892E292D99
:100D00003A8149815B2F6F2F7E2F872D982DA196D9
:100D1000CDBFDEBFDF91CF911F910F91FF90EF907C
:100D2000DF90CF90BF90AF909F908F907F906F900B
:100D30005F904F903F902F9008952F923F924F9247
:100D40005F926F927F928F929F92AF92BF92CF925B
:100D5000DF92EF92FF920F931F93CF93DF93CDB764
:100D6000DEB7E297CDBFDEBFFC018080898E918027
:100D70009A8EA280AB8EB380BC8EC480CD8ED5807F
:100D8000DE8EE680EF8EF780F8A2282D392D4A2DD1
:100D90005B2D6C2D7D2D8E2D9F2D00E20E9422401B
:100DA000822F932FA42FB52F8DA79EA7AFA7B8ABE7
:100DB000098D1A8D2B8D3C8D33237CF49C01AD0164
:100DC0002F5F3F4F4F4F5F4F2DA73EA74FA758AB09
:100DD000232B242B252B09F4C1C18DA49EA4AFA4E1
:100DE000B8A8950144275527C9019F77892B29F574
:100DF00024013501662477244114510461047104EF
:100E000059F4298D3A8D4B8D5C8D6D8D7E8D8F8D36
:100E100098A10E94F73FAEC1440C551C661C771C7C
:100E2000440C551C661C771C70946094509440943C
:100E3000411C511C611C711C8DC02F3F0FEF3007EE
:100E400069F44DA45EA46FA478A870946094509443
:100E50004094411C511C611C711C7CC0B9017695E9
:100E60006795CB01A0E0B0E0BC01CD016095709525
:100E7000809590950E94743F2F5F3F4F6901E12C50
:100E8000F12CB701A601032E31E1440F551F661F57
:100E9000771F3A95D1F7302D8DA59EA5AFA5B8A99E
:100EA00080959095A095B0954A015B01880E991E9A
:100EB000AA1EBB1E89A69AA6ABA6BCA6D701C601D0
:100EC00012961C012D01A90160E070E080E090E025
:100ED000DC0129A35AA36BA37CA38DA39EA3AFA37C
:100EE000B8A78DA59EA5AFA5B8A98C019D01A82E78
:100EF000B12EC22ED32EE12CF12C00E010E029A15E
:100F00003AA140E050E060E070E080E090E00E94B4
:100F10009E3FA22EB32EC42ED52EE62EF72E082FDE
:100F2000192F222D332D442D552D60E070E080E0E7
:100F300090E00E949E3F00E20E942240822E932E6B
:100F4000A42EB52E49A45AA46BA47CA44818590811
:100F50006A087B088DA49EA4AFA4B8A8950184015B
:100F6000A82CB12EC22ED32EE12CF12C00E010E0E3
:100F7000A301920160E070E0CB0149A23AA34BA328
:100F80005CA36DA37EA38FA398A761E070E080E0CF
:100F900090E00E949E3F8DA49EA4AFA4B8A8B694F2
:100FA000A794979487946501540145015601ABA21B
:100FB000BCA2A82CB92CCBA0DCA0E12CF12C0E9467
:100FC0003E4029873A874B875C876D877E878F876E
:100FD000988BC22ED32EE42EF52E00E20E942240E2
:100FE0002223C9F04DA55EA56FA578A9DB01CA0132
:100FF0008C0D9D1DAE1DBF1D8C159D05AE05BF053D
:1010000008F42F5F0FEF401A500A600A700A6C0153
:101010007D012111EBCF53014201242D392D4A2DA1
:101020005B2D60E070E080E090E00FE10E940740FF
:10103000222E332E442E552E662EF72E182F722E6A
:10104000832E49A359A76DA779AB8AAB9068992ED7
:1010500029823A824B825C826D82FE821F8398874E
:10106000298D3A8D4B8D5C8D6D8D7E8D8F8D98A1E8
:1010700001E00E940740298B3A8B4B8B5C8B6D8B78
:101080007E8B8F8B988F40E0BE016F5E7F4FCE01CD
:1010900001960E944F05A22EB32EC42ED52EE62E09
:1010A000E72F082FF92F222D332D442D552D662D96
:1010B0007F2D812F992DFE2E1F2F0E943E400E94D2
:1010C000F73FA22EB32EC42ED52EE62EF72E082FD4
:1010D000192F29873A874B875C876D877E878F8793
:1010E000988B40E0BE01675F7F4FCE0101960E9462
:1010F0004F05222E332E442E552E662EB72FF82F55
:10110000E92F2A2D3B2D4C2D5D2D6E2D7F2D802F0F
:10111000912FA0E00E94654044F4712C812C19A20B
:1011200019A61DA619AA1AAA912C222D332D442DD9
:10113000552D662D7B2F8F2F9E2FA1E00E944740BB
:10114000A72CB82CC9A0D9A4EDA4F9A80AA9192DD7
:101150000E943E4001E00E9422400CC019861A867F
:101160001B861C861D861E861F86188A412C512CC4
:10117000320151CFE296CDBFDEBFDF91CF911F91FB
:101180000F91FF90EF90DF90CF90BF90AF909F9026
:101190008F907F906F905F904F903F902F90089529
:1011A0006F927F928F929F92AF92BF92CF92DF9277
:1011B000EF92FF920F931F93CF93DF93CDB7DEB7DC
:1011C000A597CDBFDEBF3C010E8B1F8B288F398FBB
:1011D0004A8F5B8F6C8F7D8F8E8E9F8EA8A2B9A257
:1011E000CAA2DBA2ECA2FDA20AE09E012A5F3F4F49
:1011F000AE014E5F5F4FBE016F5F7F4FCE014696DF
:101200000E940D029E01225F3F4FAE014C5F5F4F77
:10121000BE016F5F7F4FCE014E960E940D02E8AD7A
:10122000F9AD1082EA81FB81EF3F27E0F207E9F593
:101230002E813F81488559856A857B858C859D8572
:10124000A0E00E94654029F58C819D818F3F9740E9
:1012500071F42E853F85488959896A897B898C89F3
:101260009D890E946540A9F4FFA9FF2391F08E8912
:10127000F30180838F898183888D8283898D838325
:101280008A8D84838B8D85838C8D86838D8D8783DA
:101290001EC18FEFF30180838183828383838483E4
:1012A000858386838FE7878312C1AC81BD81AF3F81
:1012B00027E0B20791F48E8DF30180838F8D8183B7
:1012C00088A1828389A183838AA184838BA185835A
:1012D0008CA186838DA18783FAC0309731F0CF012E
:1012E000805C9F4FA817B907B4F08E8DF3018083FF
:1012F0008F8D818388A1828389A183838AA184833E
:101300008BA185838CA186838DA1878381E0E8AD45
:10131000F9AD8083DCC0109731F0CD01805C9F4F28
:10132000E817F90794F08E89F30180838F89818310
:10133000888D8283898D83838A8D84838B8D858339
:101340008C8D86838D8D8783C2C02FA9222309F4BB
:1013500045C0EA17FB0704F18F010A1B1B0B2E8502
:101360003F85488959896A897B898C899D890E9432
:101370002240AE80BF80C884D984EA84FB840C8577
:101380001D850E943E402E833F83488759876A8788
:101390007B878C879D8790C08D010E1B1F0B2E8134
:1013A0003F81488559856A857B858C859D850E940E
:1013B0002240AE84BF84C888D988EA88FB880C891B
:1013C0001D890E943E402E833F83488759876A8744
:1013D0007B878C879D87AA83BB836EC0AE17BF07B0
:1013E000B4F0EA17FB07D9F52E813F81488559856E
:1013F0006A857B85AE84BF84C888D988EA88FB88E3
:101400000C891D898C859D850E945C4040F18F016F
:101410000A1B1B0B2E853F85488959896A897B8960
:101420008C899D890E942240A22EB32EC42ED52ED7
:10143000E62EF72E082F192F2E813F8148855985DA
:101440006A857B858C859D850E9453402E833F83D2
:10145000488759876A877B878C879D872DC08D0138
:101460000E1B1F0B2E813F81488559856A857B8520
:101470008C859D850E942240A22EB32EC42ED52E8F
:10148000E62EF72E082F192F2E853F85488959897A
:101490006A897B898C899D890E9453402E833F8372
:1014A000488759876A877B878C879D8781E0E8AD6D
:1014B000F9AD8083AA83BB834A815B814A5051097D
:1014C0009E012A5F3F4F60E0C3010E94B502A596CE
:1014D000CDBFDEBFDF91CF911F910F91FF90EF90B5
:1014E000DF90CF90BF90AF909F908F907F906F9044
:1014F00008954F925F926F927F928F929F92AF92D8
:10150000BF92CF92DF92EF92FF921F93CF93DF9320
:10151000CDB7DEB76097CDBFDEBF2B013C01E894AD
:1015200067F8772453014201BB0C8808982C5401BA
:1015300049825A826B827C828D828E828F828886DB
:101540006B017C010B2EB7E1F594E794D794C79417
:10155000BA95D1F7B02DF601FF276B017C01CC24A1
:10156000F7FCC394DD24EE24FF241C2D309709F0F2
:1015700066C0242D352D462D572D682D782D882DAC
:10158000982DA0E00E94654011F517C0242D352D3F
:10159000462D572D682D782D882D982DA0E00E947E
:1015A000654049F5111130C020E030E040E050E0E6
:1015B00060E070E080EF9FE746C019821A8280E801
:1015C0008B831C821D821E821F82188602C0EEE958
:1015D000F3E09E012F5F3F4FAF016C2DCE010996C6
:1015E0000E94B50229853A854B855C856D857E858F
:1015F0008F85988928C02FEF3FEF4FEF5FEF6FEF98
:101600007FEF8FEF9FE71FC020E030E040E050E029
:1016100060E070E080EF9FEF16C0D301C201A068C8
:1016200089839A83AB83BC83BB0F880B982FDC0123
:101630008D838E838F838887E356FC4FCACFEF3F1D
:10164000F10559F7A3CF6096CDBFDEBFDF91CF91F3
:101650001F91FF90EF90DF90CF90BF90AF909F9041
:101660008F907F906F905F904F9008952F923F9250
:101670004F925F926F927F928F929F92AF92BF92A2
:10168000CF92DF92EF92FF920F931F93CF93DF934E
:10169000CDB7DEB72A97CDBFDEBF422E532E642EC4
:1016A0005A87B62FA72FF82FE92F302E0FE30E946D
:1016B00022402170722E2A2D3B2D4C2D5D2D6E2D3A
:1016C0007F2D832D912F0E9422402170222E2715DD
:1016D00009F1CE0101969F938F931F928A2C9B2C28
:1016E000AC2CBD2CCE2CDF2CE32CF12E042D152D93
:1016F000262D3A854B2F5A2F6F2F7E2F01960E9451
:10170000D0082980272D22252170222E0F900F909E
:101710000F901DC0CE0101969F938F9381E08F9310
:101720008A2C9B2CAC2CBD2CCE2CDF2CE32CF12E48
:10173000042D152D262D3A854B2F5A2F6F2F7E2FD6
:10174000CE0102960E94D0080F900F900F90222099
:1017500021F089858068898703C089858F7789878B
:101760002A813B814C815D816E817F81888599854D
:101770002A96CDBFDEBFDF91CF911F910F91FF90D1
:10178000EF90DF90CF90BF90AF909F908F907F9021
:101790006F905F904F903F902F9008957F928F921F
:1017A0009F92AF92BF92CF92DF92EF92FF920F93F0
:1017B0001F93CF93DF93722E832E942ED52FC62F97
:1017C000B72FA82FF92FE02F2A2D3B2D4C2D5D2D63
:1017D0006E2D7F2D802F912F0FE30E94224020FD40
:1017E00003C00E2F106802C00E2F1F77272D382D33
:1017F000492D5D2F6C2F7B2F8A2F9F2F0E94360B38
:10180000DF91CF911F910F91FF90EF90DF90CF90DC
:10181000BF90AF909F908F907F900895AF92BF92AE
:10182000CF92DF92EF92FF920F931F93CF93DF93AC
:10183000CDB7DEB7A697CDBFDEBF2F8B388F498FD0
:101840005A8F6B8F7C8F8D8F9E8FAF8EB8A2C9A25F
:10185000DAA2EBA2FCA20DA31EA30BE09E01295F5E
:101860003F4FAE014D5F5F4FBE016F5F7F4FCE01B7
:1018700047960E940D029E01215F3F4FAE014B5FD4
:101880005F4FBE016E5F7F4FCE014F960E940D02EB
:10189000EB81FC81EF3F27E0F20721F52F813885AE
:1018A00049855A856B857C858D859E85A0E00E9443
:1018B000654009F06CC08D819E818F3F27E09207C3
:1018C00069F42F85388949895A896B897C898D8982
:1018D0009E890E94654009F063C043C0892B09F4CA
:1018E00068C03FC08D819E818F3F27E09207E9F459
:1018F0002F85388949895A896B897C898D899E8988
:10190000A0E00E94654009F05DC0EF2B09F463C0C0
:101910008FEF97E08B839C831F82188619861A8627
:101920001B861C861D861E861CC0309709F45CC071
:10193000009709F462C0E80FF91FE950F440EB8307
:10194000FC8340E0BE01615F7F4FCE0107960E949D
:101950004F052F83388749875A876B877C878D8708
:101960009E8769818A81682769834B815C819E019A
:10197000295F3F4FCE0147960E94B5022F89388DCF
:10198000498D5A8D6B8D7C8D8D8D9E8D3EC02FEF38
:101990003FEF4FEF5FEF6FEF7FEF8FEF9FE735C0C8
:1019A0002FEF3FEF4FEF5FEF6FEF7FEF8FEF9FE78F
:1019B0002CC02FEF3FEF4FEF5FEF6FEF7FEF8FEF19
:1019C0009FE723C02FEF3FEF4FEF5FEF6FEF7FEF0A
:1019D0008FEF9FE71AC02FEF3FEF4FEF5FEF6FEFF3
:1019E0007FEF8FEF9FE711C020E030E040E050E054
:1019F00060E070E080E090E008C020E030E040E08F
:101A000050E060E070E080E090E0A696CDBFDEBFE1
:101A1000DF91CF911F910F91FF90EF90DF90CF90CA
:101A2000BF90AF900895AF92BF92CF92DF92EF92A6
:101A3000FF920F931F93CF93DF93CDB7DEB7E69757
:101A4000CDBFDEBF2FA338A749A75AA76BA77CA796
:101A50008DA79EA7AFA6B8AAC9AADAAAEBAAFCAA24
:101A60000DAB1EAB0BE09E01295F3F4FAE014D5FFA
:101A70005F4FBE016F5F7F4FCE0187960E940D02C0
:101A80009E01215F3F4FAE014B5F5F4FBE016E5F16
:101A90007F4FCE018F960E940D020D811E81011590
:101AA000110509F482C0EB80FC808FEFE81687E017
:101AB000F806F1F42F81388549855A856B857C8538
:101AC0008D859E85A0E00E94654009F07AC00F3F99
:101AD000174009F482C099818A8198138AC0D12C59
:101AE000E12CF12C00E010E0B0E0F0EFEFE789C06E
:101AF0000F3F87E0180709F5DF84E888F9880A892D
:101B00001B89BC89FD89EE892D2D3E2D4F2D502F2F
:101B1000612F7B2F8F2F9E2FA0E00E94654009F43C
:101B200070C0DD24DA94EE24EA94FF24FA940FEFD7
:101B30001FEFBFEFFFEFEFE764C0CE010F960E94EB
:101B40009D062F8F38A349A35AA36BA37CA38DA313
:101B50009EA340E0BE01615E7F4FCE0107960E94CA
:101B60004F052F8B388F498F5A8F6B8F7C8F8D8FBE
:101B70009E8FA701401B510B41505C4F4B835C83F0
:101B80004A50510969818A8168279E01295E3F4F29
:101B9000CE0187960E94B502DFA0E8A4F9A40AA5A9
:101BA0001BA5BCA5FDA5EEA52CC0DD24DA94EE2472
:101BB000EA94FF24FA940FEF1FEFBFEFFFEFEFE778
:101BC00020C0DD24DA94EE24EA94FF24FA940FEF87
:101BD0001FEFBFEFFFEFEFE714C0DD24DA94EE2430
:101BE000EA94FF24FA940FEF1FEFBFEFFFEFEFE748
:101BF00008C0D12CE12CF12C00E010E0B0E0F0EFB7
:101C0000EFEF2D2D3E2D4F2D502F612F7B2F8F2F3E
:101C10009E2FE696CDBFDEBFDF91CF911F910F9132
:101C2000FF90EF90DF90CF90BF90AF9008952F92EC
:101C30003F924F925F926F927F928F929F92AF925C
:101C4000BF92CF92DF92EF92FF920F931F93CF93A9
:101C5000DF93CDB7DEB7C354D109CDBFDEBF2C872C
:101C60003D874E875F87688B798B8A8B9B8B0BE0D8
:101C70009E012C5F3F4FAE014E5F5F4FBE016F5F15
:101C80007F4FCE010C960E940D028A819B81249683
:101C90008EAF9FAF2497009709F4BFC28F3F974044
:101CA000C9F42C813D814E815F81688579858A8563
:101CB0009B85A0E00E94654009F0B8C2898181112E
:101CC000BEC22C853D854E855F85688979898A8964
:101CD0009B89E2C289818111BBC223962FAD2397D4
:101CE00020FF42C0EC81DD80EE80FF8008851985F1
:101CF000BA85FB852E2F217030E040E050E060E097
:101D000070E090E0A0E00E94654071F01AAE1BAE5A
:101D10001CAE1DAE1EAE1FAE21961FAE219780E8F1
:101D200022968FAF22970CC01AAE1BAE1CAE1DAE12
:101D30001EAE1FAE21961FAE219722961FAE229790
:101D40002E2F3D2D4E2D5F2D602F712F8B2F9F2F0E
:101D500001E00E9422402C833D834E835F8368878D
:101D600079878A879B870CC01AAE1BAE1CAE1DAE4E
:101D70001EAE1FAE21961FAE219722961FAE229750
:101D80009C819BA3AD81ACA32E812DA38F818EA3BB
:101D900098859FA3A985A8A72A8529A78B858AA7A7
:101DA000FEE7512C612C712C812C912CB0E019A2F2
:101DB0001BA61CA61DA61EA61FA618AA19AA462C5D
:101DC000372C282CEF2FF92DE03448F10E2F10E09E
:101DD0000054110921E030E040E050E060E070E0A4
:101DE00080E090E00E940740A9A0BBA4CCA4DDA4A1
:101DF000EEA4FFA408A919A90E943E402A8F3B8F98
:101E00004C8F5D8F6E8F7F8F88A39AA35C8A4D8ADB
:101E10003E8A2F8A6F2EB88F998E782C5FC021E072
:101E200030E040E050E060E070E080E090E00E2FB5
:101E30000E9407402C8B3D8B4E8B5F8B662E772E3E
:101E4000888F998F0E94F73FA52CB42CC32CD22CDD
:101E5000EF2EFB2E092D182D0E945C4009F0A0F4F6
:101E600029A13BA54CA55DA56EA57FA588A999A92B
:101E7000A1E00E9447402A8F3B8F4C8F5D8F6E8F71
:101E80007F8F88A39AA310C099A19A8FABA5AB8F1F
:101E90002CA52C8F8DA58D8F9EA59E8FAFA5AF8F66
:101EA00028A928A389A98AA32C893D894E895F89FD
:101EB000662D772D888D998DA52CB42CC32CD22C12
:101EC000EF2EFB2E092D182D0E943E402C8B3D8BB2
:101ED0004E8B5F8B662E788F898F792E252D342D32
:101EE000432D522D6F2F7B2F892D982D01E00E94BD
:101EF0002240192F522E432E342E252EF62FB72F87
:101F0000982E892E29A1217030E040E050E060E059
:101F100070E080E090E0A0E00E94654011F0106861
:101F2000812E29A13BA54CA55DA56EA57FA588A9FD
:101F300099A901E00E9422402AAB3BAB4CAB5DABC0
:101F40006EAB7FAB88AF99AF29A33BA74CA75DA72A
:101F50006EA77FA788AB99AB2A8D3B8D4C8D5D8D8D
:101F60006E8D7F8D88A19AA1ABA0BCA0CDA0DEA074
:101F7000EFA0F8A409A51AA50E945C4070F10E9488
:101F80005C4009F0D5C02C893D894E895F89662D5A
:101F9000788D898D972DAAACBBACCCACDDACEEAC0A
:101FA000FFAC21960FAD219722961FAD22970E947C
:101FB0005C4009F008F455C19A8D9BA3AB8DACA38E
:101FC0002C8D2DA38D8D8EA39E8D9FA3AF8DA8A745
:101FD00028A129A78AA18AA7ABC02BA13CA14DA10A
:101FE0005EA16FA178A589A59AA5AA8CBB8CCC8C83
:101FF000DD8CEE8CFF8C08A11AA10E9453402A8F21
:102000003B8F4C8F5D8F6E8FA72F8F8F98A32BA345
:102010003CA34DA35EA36FA378A789A79AA72C8999
:102020003D894E895F89662D788D898D972DAAAC63
:10203000BBACCCACDDACEEACFFAC21960FAD2197C8
:1020400022961FAD22970E945C40A1F098F02A8D45
:102050003B8D4C8D5D8D6E8D7A2F8F8D98A1AFEF5E
:102060000E9447402BA33CA34DA35EA36FA378A778
:1020700089A79AA72AAD3BAD4CAD5DAD6EAD7FADE6
:1020800021968FAD219722969FAD2297AC88BD886F
:10209000CE88DF88E62CF88C098D172D0E945340DE
:1020A0002AAF3BAF4CAF5DAF6EAF7FAF21968FAF26
:1020B000219722969FAF2297E03438F10E2F10E03F
:1020C0000054110921E030E040E050E060E070E0B1
:1020D00080E090E00E940740AAA9A22BA9A32BA907
:1020E000232B2BA7ACA9A42BACA72DA9252B2DA75F
:1020F000AEA9A62BAEA72FA9272B2FA7A8ADA82B3B
:10210000A8AB29AD292B29AB13C021E030E040E07A
:1021100050E060E070E080E090E00E2F0E94074009
:10212000522A432A342A252AF62BB72B982A892AA1
:10213000E250EE3F09F048CE642C732C9A8E9F2E0D
:10214000E82D822C2BA13CA14DA15EA16FA178A509
:1021500089A59AA5A0E00E946540C1F4252D342DE3
:10216000432D522D6F2F7B2F8A8D9E2FAAACBBAC97
:10217000CCACDDACEEACFFAC21960FAD2197229636
:102180001FAD22970E945C4009F080F4252D362D6A
:10219000472D582D692D7B2F8A8D9E2FAFEF0E94E2
:1021A000654069F0A1E00E94474011C0252D342D03
:1021B000432D522D6F2F7B2F8A8D9E2F08C0252DEA
:1021C000362D472D582D692D7B2F8A8D9E2F2C83E0
:1021D0003D834E835F83688779878A879B872496B0
:1021E0008EAD9FAD24970196AC0112F44F5F5F4F07
:1021F000559547954C505E4F9E012C5F3F4F60E0D8
:10220000CE010C960E94B5022C853D854E855F85DA
:10221000688979898A899B893FC020E030E040E065
:1022200050E060E070E080E090E036C02FEF3FEFDC
:102230004FEF5FEF6FEF7FEF8FEF9FE72DC02FEF37
:102240003FEF4FEF5FEF6FEF7FEF8FEF9FE724C020
:102250002FEF3FEF4FEF5FEF6FEF7FEF8FEF9FE7D6
:102260001BC02BA13CA14DA15EA16FA178A589A5A2
:102270009AA5AA8CBB8CCC8CDD8CEE8CFF8C08A133
:102280001AA10E9453402BA33CA34DA35EA36FA3AE
:1022900078A789A79AA7EECECD5BDF4FCDBFDEBF73
:1022A000DF91CF911F910F91FF90EF90DF90CF9032
:1022B000BF90AF909F908F907F906F905F904F9066
:1022C0003F902F9008952F923F924F925F926F927E
:1022D0007F928F929F92AF92BF92CF92DF92EF92B6
:1022E000FF920F931F93CF93DF93CDB7DEB7ED9798
:1022F000CDBFDEBF2CA73DA74EA75FA768AB79ABCC
:102300008AAB9BABE9AECEAADFAA502E21E1201703
:1023100020F40F2EF1E15F2EF02D511002C0552454
:1023200053940BE09E012C5F3F4FAE014E5F5F4F19
:10233000BE016F5F7F4FCE018C960E940D028A8195
:102340009B81009731F4E2ECF0E280E3808311821C
:1023500014C38F3F37E0930751F52C813D814E81A7
:102360005F81688579858A859B85A0E00E946540AC
:1023700059F0E2ECF0E28EE491E6808391838EE402
:1023800090E082839383F9C28981811102C08BE23C
:1023900001C08DE28093C220E3ECF0E289E49EE488
:1023A0008083918386E490E082839383E6C2AC01CC
:1023B0004F5F53404A835B832981222331F02DE212
:1023C0002093C22081E088AF01C018AE5523D4F01D
:1023D0001A01220C331CCA01880F991F880F991FFC
:1023E000880F991F280E391E9FE1290E311C369443
:1023F00027943694279436942794369427943694C9
:10240000279413C027EF24031001259F300C1124BB
:1024100036942794369427943694279436942794A8
:1024200036942794319421943108EE27FF27E2193E
:10243000F3090E2FDF2E1F2F110F110BC12E912E1E
:10244000812E712E612E1C8A1D8A1E8A1F8A188E6B
:10245000198E1A8E80EA8B8F1C861D861E861F861B
:10246000188A198A1A8A80E88B8B2E2F3F2F412FCA
:10247000512F612F712F812F912FA0E00E94654075
:102480000CF064C20E94F73F022FD32E142FC52EEA
:10249000962E872E782E692E0E94654009F46BC017
:1024A0004424439401C0412CA12CB12C0F2EF3E005
:1024B000EF2EF12CF02D202F217030E040E050E085
:1024C00060E070E080E090E0A0E00E946540E1F014
:1024D000BE016C5E7F4FCE010C960E944F052C878B
:1024E0003D874E875F87688B798B8A8B9B8BCE016C
:1024F0000C960E94970497012F5F3F4F281B3109CC
:1025000087FD3395A20EB31E40E0BE016C5E7F4F87
:10251000CB010E944F052C8B3D8B4E8B5F8B688FC0
:10252000798F8A8F9B8FEE0CFF1CAFEFEA1AFA0AA5
:10253000CE0144960E949704E81AF10887FDF394AF
:10254000202F3D2D412F5C2D692D782D872D962D27
:1025500001E00E942040022FD32E142FC52E962E6C
:10256000872E782E692EA0E00E94654009F0A3CF47
:102570004420D1F002C0A12CB12CCE010C960E94B7
:102580009D062C873D874E875F87688B798B8A8B6A
:102590009B8BB194A194B108CE010C960E94970434
:1025A000A81AB10887FDB3948A819B81A80EB91E31
:1025B000AA82BB8240E0BE01645F7F4FCE010496D9
:1025C0000E944F052C833D834E835F836887798704
:1025D0008A879B87CE0104960E94970421E030E011
:1025E000F901E81BF10987FDF395CF012A813B81B1
:1025F000820F931F8A839B83992394F50F2EF0EA11
:10260000FF2EF02D04E010E01CA21DA21EA21FA2AE
:1026100018A619A61AA6FBA640E0BE016C5D7F4F66
:10262000CE0104960E944F052C833D834E835F8329
:10263000688779878A879B87CE0104960E949704D2
:102640009801281B310987FD33958A819B81820F70
:10265000931F8A839B83F1E02F1A31089923A4F2F8
:102660001CEC2AC01C8F1D8F1E8F1F8F18A319A34F
:102670001AA31BA340E0BE01645E7F4FCE01049607
:102680000E944F052C833D834E835F836887798743
:102690008A879B87CE0104960E949704082E000C1F
:1026A000990B03962A813B81A901481B590B4A8348
:1026B0005B835FEF251A350AEA81FB81E430F1057F
:1026C0008CF6E330F105A9F49B8520E030E040E092
:1026D00050E060E070E080E0907F2F3F3F4F4F4F31
:1026E0005F4F6F4F7F4F8F4F9F4911F008F0BACF68
:1026F0003DC1B8ADBF5F8FEF850D552009F487C090
:102700001B2F0F2EFFE34F2E512CF02D6894AA247F
:10271000A2F8B12C8B0F99249394980E2AAE3BAE5D
:10272000812F90E0FC01EE53FF4D20E32083EA81EE
:10273000FB81ECAFFDAFFF23DCF13C806D807E8040
:102740008F80E884F984BA85AB85FC01EE53FF4D98
:10275000ECABFDAB6201ECADFDADCE1ADF0A232D73
:10276000362D472D582D6E2D7F2D8B2F9A2F0C2D0A
:102770000E942240205DECA9FDA92083ECADFDADB7
:102780003196232D362D472D582D6E2D7F2D8B2FD5
:102790009A2F0E2F0E9407402C833D834E835F8328
:1027A000688779878A879B872FEF3FEF2A833B8350
:1027B0001F5F1C8A1D8A1E8A1F8A188E198E1A8E08
:1027C00030EA3B8F40E0BE016C5E7F4FCE01049645
:1027D0000E944F052C833D834E835F8368877987F2
:1027E0008A879B87CE0104960E949704A501481B07
:1027F000510987FD5395CA012A813B81820F931F9E
:102800008A839B83B92D91128BCF2AAC3BACEA8192
:10281000FB81FF230CF45AC00FE310E00E1B1F0BCB
:102820002C813D814E815F81688579858A859B8574
:102830000E942240A4E00E94654009F008F446C0CE
:102840003FEF3B0F58AD5317F0F0232F3B2F26C01F
:10285000822F90E0FC01EE53FF4D4081493369F433
:10286000322F02C050E368ADFC01EE53FF4D5083A0
:102870002FEF230F621760F311C0FC01EE53FF4DE1
:102880004F5F40830BC0832F90E0FC01EE53FF4D60
:102890004081493339F3232F3B2FEFCF88AD82138B
:1028A00015C09FEF291A390AE32FF0E0EE53FF4DD0
:1028B00081E380833F5F3B1748F480E3E32FF0E040
:1028C000EE53FF4D80833F5F3B13F8CFA8AD8A2FB7
:1028D00090E0FC013196AF014E535F4DFA0120812B
:1028E0008E539F4DFC0120838EE2FA018083F9AD67
:1028F000FF2331F0EB2FF0E0EE53FF4D1082BF5F6E
:1029000031E03B0F8B2F90E08E539F4D25E4FC016F
:1029100020831214130444F4BE5FE32FF0E0EE535F
:10292000FF4D8BE2808301C0B32F6B2F70E06E539D
:102930007F4D4AE0C1010E948E412EA93FA9211579
:102940003105D9F0F9012082318217C02E2F3F2F97
:10295000412F512F612F712F812F912FA0E00E94C5
:10296000654009F0A0CDA12CB12C1ECEB8ADBF5F43
:102970008FEF850D5110C4CE4FCF82EC90E2ED96D3
:10298000CDBFDEBFDF91CF911F910F91FF90EF90F0
:10299000DF90CF90BF90AF909F908F907F906F907F
:1029A0005F904F903F902F9008952F923F924F92BB
:1029B0005F926F927F928F929F92AF92BF92CF92CF
:1029C000DF92EF92FF920F931F93CF93DF93CDB7D8
:1029D000DEB76597CDBFDEBFA22E732E642E552EB7
:1029E000462E372EF82EB92E802EEA8AA0E00E94BD
:1029F000654024F499249A94900E01C0902E11E021
:102A0000190D191554F504C091160CF063C003C0DC
:102A1000812F192D982E9E012F5F3F4F6901EE24C3
:102A2000E394092D2A2D372D462D552D642D732D18
:102A30008F2D9B2D0E946311FC0120E030E040E0CF
:102A400050E060E070E08F2D807F9B2D9F77A0E0AD
:102A50000E94654009F478C188C02A2D372D462D83
:102A6000552D642D732D8F2D9B2D04E30E94224044
:102A70002B8337703B87EFEFE80D2A2D372D462D3E
:102A8000552D642D732D8F2D9B2D0FE30E94224019
:102A900020FF02C08E2F01C0882D8D8B482F082E5D
:102AA000000C550B488B598B0F2EF3E02F2EF02D79
:102AB0005F2D507F5C879B2D9F779D87AA892A2F4A
:102AC00030E0A901409550954E875F878B8B8150F0
:102AD0008C8B01C0912ECE0101966C01EE24E39403
:102AE000092D2A2D372D462D552D642D732D8F2D13
:102AF0009B2D0E946311FC012B813B8540E050E03F
:102B000060E070E080E090E02F3FA7E03A074105E9
:102B10005105610571058105910509F4ABC120E0FE
:102B200030E08C859D85A0E00E94654009F4A2C13B
:102B300089819A812E853F85821793070CF494C171
:102B4000992324F481501D89180F09C001964889E2
:102B500059898417950714F41C8901C01B892A948C
:102B6000222019F0191150CF192DA981BA815A8943
:102B7000852F90E0919581959109A817B9070CF4DC
:102B8000E3C0812F110F990BA817B9070CF0DCC017
:102B90002A2D372D462D552D642D732D8F2D9B2DD0
:102BA0000FE30E942240622F617020FD3196BB230B
:102BB0005CF01A161B060CF084C082818183882386
:102BC00009F457C081E074C0DF010D900020E9F7DF
:102BD00011979D012E1B3F0B8FEF820F222321F1B6
:102BE000DF01A80FB11D9C91903311F03FC1892FD7
:102BF0001C929FEF980F8823B9F0DF01A90FB11D38
:102C00002C912033A1F333C1282F30E0DF01A20F34
:102C1000B31F9C9149815A81241B350BDF01A20F00
:102C2000B31F9C93815081F780E380838EE2818380
:102C300089819A81019689839A8399230CF07FC0B8
:102C400022E030E3DF01A20FB11D3C9389819A811C
:102C5000019689839A832F5F9923A4F370C0DF01C3
:102C6000A80FB11D11969C9111979C93911120C0B2
:102C700001C081E0282F30E049815A814217530773
:102C800084F070E391E0980FDF01A80FB11D7C93F1
:102C9000892F492F50E029813A812417350794F76D
:102CA00001C0982FDF01A90FB11D1C92892F43C0CD
:102CB0008F5F482F50E029813A81241735077CF631
:102CC00001C081E0282F30E02F5F3F4F912C281565
:102CD00039058CF5DF01A80FB11D9C91992359F19D
:102CE0008EE28C93DF010D900020E9F711979D0192
:102CF0002E1B3F0B8FEF820F2223A9F0DF01A80FBD
:102D0000B11D9C91903379F48EEF820F01C0822F18
:102D10001C928F3F41F0DF01A80FB11D2FEF280F4C
:102D20009C919033A1F3DF01A80FB11D8C918E32DD
:102D300031F41C9204C0DF01A80FB11D1C92662360
:102D400009F498C0319796C02A2D372D462D552D60
:102D5000642D732D8F2D9B2D0FE30E942240822F17
:102D60008170282E20FD03C01CEF180D02C01BEF40
:102D7000180D2A2D372D462D552D642D732D8F2D91
:102D80009B2D04E30E9422402B833C834D835E8372
:102D90006F83788789879A878B819C8197708983D5
:102DA0009A838F3FA3E09A070CF411508D5D9340F6
:102DB0008534910508F0115011110CC011E00AC0C2
:102DC000115049F48281882361F18F7D8534E9F4C3
:102DD00092E028C0912CC12CD12CE12C012F2A2D5E
:102DE000372D462D552D642D732D8F2D9B2D0E9433
:102DF0006311FC01DC010D900020E9F71197A81B7D
:102E0000B90B8A169B06E0F2DDCF92E09F5FDF01EF
:102E1000A90FB11D8C91882329F08F7D8534B1F7DE
:102E200001C092E0892F8150843020F421100AC023
:102E3000833050F0DF01A80FB11D2C91203399F39E
:102E4000282F03C0282F01C0282F981B892F820FFD
:102E50002F5FDF01A80FB11D8C91DF01A20FB11D03
:102E60008C938111F3CF06C0192D7FCE822F9081D4
:102E70009183CACECF016596CDBFDEBFDF91CF91E2
:102E80001F910F91FF90EF90DF90CF90BF90AF9088
:102E90009F908F907F906F905F904F903F902F907A
:102EA00008958091A80684FD0EC0809148219091DC
:102EB000492180362AEE9207B8F401968093482182
:102EC0009093492111C08091482190914921892BEB
:102ED00021F081E08093082E03C082E08093082EC9
:102EE00010924821109249218091A80685FD0EC0BC
:102EF000809146219091472180362AEE9207B8F4BE
:102F00000196809346219093472111C080914621DC
:102F100090914721892B21F081E08093092E03C0F5
:102F200082E08093092E10924621109247218091D1
:102F3000A80686FD0EC080914421909145218036DF
:102F40002AEE9207B8F4019680934421909345218C
:102F500011C08091442190914521892B21F081E07D
:102F600080930A2E03C082E080930A2E109244219F
:102F7000109245218091A806882374F08091422107
:102F80009091432180362AEE9207B8F401968093FF
:102F900042219093432108958091422190914321B1
:102FA000892B21F081E080930B2E03C082E0809377
:102FB0000B2E10924221109243210895813049F046
:102FC00028F0823049F0833051F00CC08091082EF7
:102FD00008958091092E089580910A2E0895809178
:102FE0000B2E089582E008950F93CF93DF931F92E5
:102FF000CDB7DEB72FB72983F8941BBEFC0108EDCF
:1030000004BF608389818FBF0F90DF91CF910F91B3
:103010000895611102C090E001C090E2842B892BD9
:103020008093520008956F71862B80935500089508
:10303000E0E5F0E09081282F209592239083908105
:1030400089230895682B81E490E00E94F417089585
:103050000F931F93CF93C82F00E410E0F801608115
:10306000687F682B80E490E00E94F417F80180816B
:103070008C23CF911F910F910895FC019081907F37
:10308000692B60830895FC019181987F692B61838E
:103090000895FC0196819C7F692B6683089500004A
:1030A00088ED84BF81E08093790008950E944F18D5
:1030B0000895CF93DF9380E190E00E94051AEC0120
:1030C000009741F0FC011192119211921192CF01DF
:1030D0000E942C1ACE01DF91CF9108952F923F923A
:1030E0004F925F926F927F928F929F92AF92BF9218
:1030F000CF92DF92EF92FF920F931F93CF93DF93C4
:10310000EC014A015B01622E702E0E94C6212880CC
:1031100039804A805B8001110DC081E0B201A101BC
:10312000482159216A217B21452B462B472B79F4D5
:1031300080E00DC081E0B201A101482159216A213E
:103140007B21481559056A057B0509F080E0882335
:1031500081F0662009F470C080949094A094B0949B
:1031600082209320A420B52088829982AA82BB82E3
:1031700063C0C114D104E104F10409F45DC0662008
:1031800029F040E050E060E071E003C040E050E032
:10319000BA0171107460482959296A297B2997015D
:1031A0008601CE0104960E944F240E94B122811113
:1031B00002C00E948A1B0E948C2591FD39C0F091AB
:1031C000A200FF93F87FF093A200688179818A8141
:1031D0009B8171100DC021E075016401C622D722C8
:1031E000E822F922CD28CE28CF2879F420E00DC09E
:1031F00021E075016401C622D722E822F922C81411
:10320000D904EA04FB0409F020E0222371F06620CF
:1032100061F080949094A094B09486229722A82282
:10322000B92288829982AA82BB82FF91F093A20080
:103230001B012C01552402C00E94B122C201B10120
:10324000DF91CF911F910F91FF90EF90DF90CF9082
:10325000BF90AF909F908F907F906F905F904F90B6
:103260003F902F9008950F931F93F091A200FF932A
:10327000F87FF093A200FC0100811181228133814B
:103280004095509560957095402351236223732398
:103290004083518362837383FF91F093A200C9013D
:1032A000B8011F910F910895CF93DF93EC010E9415
:1032B000C61A282F688179818A819B812093A20078
:1032C000DF91CF9108954F925F926F927F92AF926C
:1032D000BF92CF92DF92EF92FF920F931F93CF9303
:1032E000DF93EC016A017B018C01095F1F4F0E9493
:1032F000C621EB85FC8588819981AA81BB81C82A7A
:10330000D92AEA2AFB2AC882D982EA82FB820E17CE
:103310001F0709F442C0C12CD12C7601A480B580CE
:1033200080819181A281B381AC01BD017727B2FD7B
:103330000FC0488059806A807B80442255226622D3
:10334000772221E045284628472889F420E00FC04D
:10335000488059806A807B804422552266227722E9
:1033600021E0441655066606770609F020E0222380
:1033700071F0B0FF04C0C42AD52AE62AF72A488192
:1033800059816A817B817260CF010E94D724EA2D26
:10339000FB2D0E171F0711F603C0C12CD12C76018F
:1033A000C094D094E094F09488819981AA81BB81E3
:1033B000C822D922EA22FB22C882D982EA82FB8271
:1033C0000E94B122688179818A819B81DF91CF91AE
:1033D0001F910F91FF90EF90DF90CF90BF90AF9033
:1033E0007F906F905F904F9008950E9463190895A9
:1033F0000F931F9389019A01AB01BC0185EF99E1FD
:103400000E946C281F910F910895CF93DF93EC01D8
:103410000E94C62120914A2130914B21C9018C0F75
:103420009D1F883B4BE0940758F42817390758F440
:10343000E901C45BDE4D80934A2190934B2105C086
:10344000C0E0D0E002C0C0E0D0E00E94B122CE01D6
:10345000DF91CF9108950895FC01039681839283B3
:103460004FEF5FEFBA01438354836583768387838D
:1034700090878187928710820895FC0112861386B7
:103480000895CF93DF939C01FB01DC011196CD9150
:10349000DC911297C483D5838E819F818683978325
:1034A0008E819F81DC0114966D937C9315976E83BA
:1034B0007F8322873387F90180818F5F8083DF914B
:1034C000CF9108950F931F93CF93DF93EB01088162
:1034D00019812A813B810F3F4FEF140724073407DE
:1034E00021F4FC01A185B28511C0DC01139601C055
:1034F000DF011496ED91FC91159740815181628115
:103500007381041715072607370790F71496ED9176
:10351000FC911597EC83FD83C683D783AE83BF836D
:103520001496CD93DC9315978A879B87FC012081A5
:103530002F5F2083DF91CF911F910F910895CF933B
:10354000DF93FC01A285B385C481D58186819781F3
:103550008E839F83C681D781848195818C839D834F
:1035600011968D919C911297E817F90731F4868195
:10357000978111968D939C931297128613868C9146
:1035800081508C938C91DF91CF910895E0EAF0E027
:1035900082819281987F92830895CF92DF92EF92F9
:1035A000FF9231E1FC013083319722E22083319791
:1035B000A3E3A0836B01E12CF12C31976083319759
:1035C000D0823197E082319761E36083319760E880
:1035D0006083319767E8608331971082319710825A
:1035E000319762E06083319763E06083319764E0F4
:1035F0006083319765E06083319766E0608331973F
:1036000067E06083319768E06083319769E06083A9
:10361000319760E1608331973083319732E13083B5
:10362000319733E13083319734E13083319735E19D
:103630003083319736E13083319737E130833197EA
:1036400038E13083319739E13083319730E230838C
:10365000319731E2308331972083319723E2208301
:103660006A01319740833197D082319726E22083D7
:10367000319727E22083319728E22083319729E28E
:103680002083319720E320838897FF90EF90DF908D
:10369000CF90089583EF91E08093260890932708B8
:1036A00065E080E098E00E943D1861E080E098E0ED
:1036B0000E944918A091722DB091732D0D900DBEEE
:1036C0000D900EBEEF91DF91CF91BF91AF919F9181
:1036D0008F917F916F915F914F913F912F911F91AA
:1036E0000F91FF90EF90DF90CF90BF90AF909F90A1
:1036F0008F907F906F905F904F903F902F901F9092
:103700000F90FF91F093A200FF91FFBFFF910895EA
:1037100081E00895FF93FFB7FF93F091A200FF931C
:10372000F87FF093A2000F921F9211242F923F92E4
:103730004F925F926F927F928F929F92AF92BF92C1
:10374000CF92DF92EF92FF920F931F932F933F93AD
:103750004F935F936F937F938F939F93AF93BF9399
:10376000CF93DF93EF93A091722DB091732D0DB68F
:103770000D920EB60D920E944F23A091722DB09122
:10378000732D0D900DBE0D900EBEEF91DF91CF9178
:10379000BF91AF919F918F917F916F915F914F9169
:1037A0003F912F911F910F91FF90EF90DF90CF905D
:1037B000BF90AF909F908F907F906F905F904F9051
:1037C0003F902F901F900F90FF91F093A200FF91D8
:1037D000FFBFFF910895CF9390910C2E892B80937A
:1037E0000C2E9091A000913041F09091A000923069
:1037F00021F09091A000943059F4882349F00E9460
:10380000C61AC82F10920C2E0E944F23C093A200FC
:10381000CF910895FF93FFB7FF93F091A200FF931C
:10382000F87FF093A2000F921F9211242F923F92E3
:103830004F925F926F927F928F929F92AF92BF92C0
:10384000CF92DF92EF92FF920F931F932F933F93AC
:103850004F935F936F937F938F939F93AF93BF9398
:10386000CF93DF93EF93A091722DB091732D0DB68E
:103870000D920EB60D920E94C61AC82F0E94DE212C
:10388000C093A20081E00E94EB1BA091722DB09129
:10389000732D0D900DBE0D900EBEEF91DF91CF9167
:1038A000BF91AF919F918F917F916F915F914F9158
:1038B0003F912F911F910F91FF90EF90DF90CF904C
:1038C000BF90AF909F908F907F906F905F904F9040
:1038D0003F902F901F900F90FF91F093A200FF91C7
:1038E000FFBFFF911895F091A200FF93F87FF0932E
:1038F000A200FC01968DFF91F093A20081E091114E
:1039000080E00895DC01F091A200FF93F87FF0932E
:10391000A2005E969C915E97FF91F093A20081E0D9
:103920005F962C91291380E008950F931F93CF93F6
:10393000DF93EC01042F1E8D48A14423B9F101113E
:1039400016C050E08C819D810E94634128A18C812A
:103950009D81820F911D8C839D832A813B818217DB
:10396000930720F1888199818C839D831FC050E04B
:103970008E819F810E94634188A190E091958195FD
:1039800091092E813F81280F391F2E833F83488163
:1039900059812417350730F42A813B81820F931F08
:1039A0008E839F83023011F4111111501F5F1E8FFF
:1039B00080E0DF91CF911F910F910895FC0140A10C
:1039C0004423A9F050E026813781240F351F268338
:1039D0003783828193812817390720F08081918174
:1039E00086839783CB01668177810E946341089526
:1039F000EF92FF920F931F93CF938C01F091A2004F
:103A0000FF93F87FF093A200FC01C2A11C16ACF456
:103A10008389811106C011C0F8018389811105C015
:103A20000CC07801F3E1EF0EF11CC7010E94952450
:103A300081110E947A25C15079F78FEFF80182A396
:103A4000FF91F093A200F091A200FF93F87FF09312
:103A5000A200F801C1A11C16ACF48085811106C03A
:103A600011C0F8018085811105C00CC07801F8E013
:103A7000EF0EF11CC7010E94952481110E947A2546
:103A8000C15079F78FEFF80181A3FF91F093A20065
:103A9000CF911F910F91FF90EF900895CF93DF93F7
:103AA000EC01F091A200FF93F87FF093A20048810F
:103AB000598128A130E07F8D729FC001739F900DC6
:103AC0001124FA01E80FF91FEA83FB831E8E4C8351
:103AD0005D83821B930B840F951F8E839F838FEFD3
:103AE00089A38AA361110CC08885882389F0CE013F
:103AF00008960E949524882359F00E948A1B08C0CA
:103B0000CE0108960E942C1ACE0143960E942C1AD0
:103B1000FF91F093A20081E0DF91CF910895FF9291
:103B20000F931F93CF93DF93082F162FF42E662346
:103B3000C9F0869FC001112485960E94051AEC01E8
:103B4000009749F416C00F8F18A361E0CE010E94C0
:103B50004E1DFCA20EC0859688839983F4CFC8833E
:103B6000D983F1CF85E290E00E94051AEC01892B00
:103B7000B1F7CE01DF91CF911F910F91FF90089582
:103B8000AF92BF92CF92DF92EF92FF920F931F936B
:103B9000CF93DF93CDB7DEB72997CDBFDEBF7C01D2
:103BA0005B012E833F834887598710E06C0188E0D2
:103BB000C80ED11CF091A200FF93F87FF093A200F1
:103BC000F701968D878D981710F00230D1F4402FB1
:103BD000B501C7010E94951CF7019389992349F00B
:103BE000C70143960E949524882331F00E948A1BC6
:103BF00003C081110E948A1BFF91F093A20081E013
:103C000057C08E819F81A885B985892B8A2B8B2BE4
:103C100029F4FF91F093A20080E04AC0111105C081
:103C2000CE0101960E940B2511E0FF91F093A200B6
:103C30000E94C621F091A200FF93F87FF093A200AA
:103C4000F70181A18F3F09F411A2F70182A18F3FF3
:103C500009F412A2FF91F093A200BE016A5F7F4FA8
:103C6000CE0101960E941C2581111CC0C7010E9433
:103C7000821C882389F04E815F8168857985C60121
:103C80000E943724C7010E94F81C0E94B1228111B2
:103C900091CF0E948A1B8ECFC7010E94F81C0E9400
:103CA000B12288CFC7010E94F81C0E94B12280E097
:103CB0002996CDBFDEBFDF91CF911F910F91FF906D
:103CC000EF90DF90CF90BF90AF900895AF92BF92EA
:103CD000CF92DF92FF920F931F93CF93DF93EC016C
:103CE0006B015A01022F0E94C61AF82E9E8D8F8DED
:103CF000981710F00230E1F41AA1402FB601CE015E
:103D00000E94951C1F3F81F48B89882399F0CE0176
:103D100043960E949524882379F0A114B10471F090
:103D200081E0F50180830BC01F5F1AA381E007C00B
:103D300080E005C081E003C081E001C081E0F09235
:103D4000A200DF91CF911F910F91FF90DF90CF9054
:103D5000BF90AF900895AF92BF92CF92DF92EF9253
:103D6000FF920F931F93CF93DF93CDB7DEB72997C1
:103D7000CDBFDEBF8C015B012E833F83488759870F
:103D8000E12C6C0183E1C80ED11CF091A200FF93DD
:103D9000F87FF093A200F801F68CFF20B1F0B50196
:103DA000C8010E94DE1CFA94F801F68E80858823F3
:103DB00039F0C80108960E94952481110E948A1B3F
:103DC000FF91F093A20081E05EC08E819F81A88563
:103DD000B985892B8A2B8B2B29F4FF91F093A200B4
:103DE00080E051C0E11006C0CE0101960E940B2573
:103DF000EE24E394FF91F093A2000E94C621F0917B
:103E0000A200FF93F87FF093A200F80181A18F3FF9
:103E100009F411A2F80182A18F3F09F412A2FF91C7
:103E2000F093A200BE016A5F7F4FCE0101960E940F
:103E30001C2581111CC0C8010E94731C882389F0B5
:103E40004E815F8168857985C6010E943724C8014B
:103E50000E94F81C0E94B122811197CF0E948A1BF8
:103E600094CFC8010E94F81C0E94B1228ECFC801D5
:103E70000E94F81C0E94B122C8010E94731C882372
:103E800009F483CF80E02996CDBFDEBFDF91CF91CB
:103E90001F910F91FF90EF90DF90CF90BF90AF9068
:103EA0000895F091A200FF93F87FF093A200FC0127
:103EB000868DFF91F093A2000895CF93DF93EC01DC
:103EC000F091A200FF93F87FF093A20089A18F3FA9
:103ED00009F419A28AA18F3F09F41AA2FF91F09365
:103EE000A2008E8D811104C0CE0143960E947424DD
:103EF000CE010E94F81CDF91CF910895E0912E2D04
:103F0000F0912F2D808181110CC08FEF9FEFDC018C
:103F10008093072D9093082DA093092DB0930A2D1F
:103F20000895E0912E2DF0912F2D0780F085E02D42
:103F30000084F185E02D82819381A481B5818093F5
:103F4000072D9093082DA093092DB0930A2D089565
:103F50008F929F92AF92BF92CF92DF92EF92FF9299
:103F6000CF936B017C01C42F8090112D9090122D66
:103F7000A090132DB090142D8091722D9091732DDF
:103F800002960E949F1A8FEFC816D806E806F80618
:103F900069F4CC2359F06091722D7091732D6E5F8E
:103FA0007F4F86E19DE20E94411A3FC0C80CD91C98
:103FB000EA1CFB1CE091722DF091732DC282D3821A
:103FC000E482F582C814D904EA04FB0468F4609121
:103FD000722D7091732D80912C2D90912D2D6E5FEF
:103FE0007F4F0E94621A21C06091722D7091732DD3
:103FF00080912E2D90912F2D6E5F7F4F0E94621A1F
:104000008091072D9091082DA091092DB0910A2D36
:10401000C816D906EA06FB0640F4C092072DD092D6
:10402000082DE092092DF0920A2DCF91FF90EF908C
:10403000DF90CF90BF90AF909F908F900895C6E48F
:10404000DDE28881823010F00E948A1B0E943130AC
:10405000F8CF4F925F926F927F928F929F92AF9222
:10406000BF92CF92DF92EF92FF920F93CF93DF93A5
:104070004C016B015A012901CA010E94051A3C0139
:10408000892B09F4EAC08CE290E00E94051AEC0149
:10409000892BB1F06B8E7C8EA50165EA70E0C301BF
:1040A0000E946C4121E0A21AB1088B8D9C8DA80E54
:1040B000B91ED6018C918D8F8C91811105C018C0CD
:1040C000C3010E942B1AC9C0AE01425E5F4FF601C8
:1040D0003196B8E0CB0ED11CCF012191DA012D939E
:1040E000AD01DC018C91882319F0EC15FD05A1F7D9
:1040F0001CA2043008F003E00A8F6E01B2E0CB0E80
:10410000D11CC6010E943D1ACE010E960E943D1A96
:10411000CA87DB8784E090E0A0E0B0E0801B9109D3
:10412000A109B1098E879F87A88BB98BCE8BDF8BB6
:104130001FA218A619A61AA61BA6A201B401C501A2
:104140000E94CD1A88839983E114F10419F0F701D4
:10415000C083D183F091A200FF93F87FF093A20077
:104160008091152D8F5F8093152D8091722D9091E8
:10417000732D892BA9F5C093722DD093732D809147
:10418000152D8130E9F586E49DE20E942C1A81E527
:104190009DE20E942C1A8CE59DE20E942C1A87E673
:1041A0009DE20E942C1A8BE39DE20E942C1A80E370
:1041B0009DE20E942C1A81E29DE20E942C1A86E167
:1041C0009DE20E942C1A8BE39DE280932E2D90930A
:1041D0002F2D80E39DE280932C2D90932D2D10C0E8
:1041E00080910F2D81110CC0E091722DF091732DF3
:1041F000928D8A8D891720F0C093722DD093732DE4
:1042000080910B2D8F5F80930B2D8DA38A8D9091C4
:10421000102D981710F48093102DFBE08F9FC00194
:104220001124B6018A5B924D0E94411AFF91F093CE
:10423000A20080910F2D882361F0E091722DF09102
:10424000732D928D8A8D981730F40E948A1B81E01D
:1042500005C081E003C081E001C08FEFDF91CF9105
:104260000F91FF90EF90DF90CF90BF90AF909F9015
:104270008F907F906F905F904F9008950F931F9352
:10428000CF93DF93009709F441C02091722D3091B4
:10429000732D8217930709F439C0F091A200FF93A0
:1042A000F87FF093A200FC012485358526513D421C
:1042B00051F5FC01208D318DFDE221323F0719F1CE
:1042C000232B09F5EC018C010E5F1F4FC8010E94E2
:1042D0009F1A8A8D9091102D981710F48093102DAD
:1042E0002BE0829FC0011124B8018A5B924D0E948D
:1042F000411AE091722DF091732D9A8D828D98174D
:1043000010F00E948A1BFF91F093A200DF91CF91E1
:104310001F910F910895EF92FF920F930F2EF5E0EA
:10432000EF2EFDE2FF2EF02D00E020E030E048EC23
:1043300050E060E270E28FE190E20E94292081303B
:1043400009F50E942A268130E9F4E0EAF0E0828152
:10435000887F82838FEF9FEFDC018093072D9093FE
:10436000082DA093092DB0930A2D81E080930F2D85
:104370001092112D1092122D1092132D1092142DB7
:104380000E944A1B0F91FF90EF9008958091042D99
:104390008F5F8093042D0895F091A200FF93F87F22
:1043A000F093A2006091112D7091122D8091132D28
:1043B0009091142DFF91F093A2000895AF92BF92B7
:1043C000CF92DF92EF92FF920F931F93CF93DF93E1
:1043D0008091042D8111ADC0C090112DD090122D6F
:1043E000E090132DF090142D8FEFC81AD80AE80A28
:1043F000F80AC092112DD092122DE092132DF09256
:10440000142DC114D104E104F104B9F480912E2DCE
:1044100090912F2D20912C2D30912D2D20932E2DEC
:1044200030932F2D80932C2D90932D2D80910C2D3A
:104430008F5F80930C2D0E947E1F8091072D90919D
:10444000082DA091092DB0910A2DC816D906EA06AB
:10445000FB0610F4B12C5CC0B12C0F2EFBE0AF2E8C
:10446000F02DE0912E2DF0912F2D808181110CC027
:104470008FEF9FEFDC018093072D9093082DA09381
:10448000092DB0930A2D44C0E0912E2DF0912F2DCF
:104490000780F085E02DC085D1858A819B81AC8124
:1044A000BD81C816D906EA06FB0648F48093072D9D
:1044B0009093082DA093092DB0930A2D29C08E0149
:1044C0000E5F1F4FC8010E949F1A888D998D892BFE
:1044D00021F0CE010E960E949F1A8A8D9091102D88
:1044E000981710F48093102DA89EC0011124B801D4
:1044F0008A5B924D0E94411AE091722DF091732DCA
:104500009A8D828D981708F4ACCFBB24B394A9CFB1
:10451000E091722DF091732DE28D8BE0E89FF00118
:104520001124EA5BF24D8081823048F0BB24B394C1
:1045300006C080910E2D8F5F80930E2DB12C80913F
:104540000D2D882311F0BB24B3948B2DDF91CF91D7
:104550001F910F91FF90EF90DF90CF90BF90AF90A1
:104560000895CF92DF92EF92FF920F931F93CF9314
:10457000DF93F091A200FF93F87FF093A200809167
:10458000042D81508093042D8091042D81115CC0F5
:104590008091152D81112CC05AC0D7011796ED912D
:1045A000FC911897C085D185CE010E960E949F1A66
:1045B0008E010E5F1F4FC8010E949F1A8A8D909135
:1045C000102D981710F48093102DD89EC00111243F
:1045D000B8018A5B924D0E94411AE091722DF091D0
:1045E000732D9A8D828D981788F0C0920D2D0EC074
:1045F000C0E0D0E00F2EF1E2EF2EFDE2FF2EF02D15
:104600000F2EFBE0DF2EF02DCC24C394F701808128
:104610008111C3CFCD2B11F00E947E1FC0910E2DB2
:10462000CC2351F0D1E00E94DE218111D0930D2DD9
:10463000C150C9F710920E2D80910D2D882331F0B5
:104640000E948A1B81E003C080E001C080E0FF91EE
:10465000F093A200DF91CF911F910F91FF90EF9007
:10466000DF90CF900895CF92DF92EF92FF926B018F
:104670007C01672B682B692B59F00E94C62140E012
:10468000C701B6010E94A81F0E94B122811102C079
:104690000E948A1BFF90EF90DF90CF900895809149
:1046A000042D882321F081E080930D2D0895109230
:1046B0000D2DE091722DF091732D038CF48DE02D72
:1046C00080819181A281B381853A954AA54AB54AF4
:1046D000D9F484819581A681B781853A954AA54A06
:1046E000B54A91F480859185A285B385853A954A2E
:1046F000A54AB54A49F484859585A685B785853A46
:10470000954AA54AB54A61F06091722D7091732D5A
:104710008091722D9091732D635E7F4F0E94561889
:104720008091102D282F30E09BE0899FF00111240B
:10473000EA5BF24D908191110EC04BE08150282F21
:1047400030E0429FF001439FF00D1124EA5BF24DEF
:104750009081992399F39BE0929FA001939F500D24
:104760001124DA01AA5BB24D1196ED91FC911297DA
:104770000480F581E02D1196ED93FC931297475B31
:10478000524DE417F50729F444815581FD01418319
:1047900052839BE0929FF001939FF00D1124EA5BFE
:1047A000F24D0180F281E02D208531852093722D1C
:1047B0003093732D8093102D08950F931F93CF93F3
:1047C000DF93EC01F091A200FF93F87FF093A20039
:1047D000892B21F4C091722DD091732D8E010E5F23
:1047E0001F4FC8010E949F1A888D998D892B21F037
:1047F000CE010E960E949F1AB80186E19DE20E94AA
:10480000411A8BA5813009F41BA6FF91F093A200F9
:1048100080910F2D882359F0F091A200FF93F87F2B
:10482000F093A2000E947E1FFF91F093A20080915E
:10483000722D9091732DC817D907A1F480910F2D77
:10484000882319F00E948A1B0DC09091162D80912B
:10485000152D981305C01092722D1092732D02C061
:104860000E944F23DF91CF911F910F910895CF9216
:10487000DF92EF92FF926A017B016091722D70913D
:10488000732D625F7F4F0E94621A41E0C701B6013B
:104890000E94A81FFF90EF90DF90CF900895CF92D5
:1048A000DF92EF92FF920F931F9368017901E091DD
:1048B000722DF091732D706846875787608B718BCE
:1048C0006091722D7091732D625F7F4F0E94411A2B
:1048D00041E0C701B6010E94A81F1F910F91FF90F0
:1048E000EF90DF90CF900895CF92DF92EF92FF92FA
:1048F000CF936A017B01C22F6091722D7091732D4D
:10490000625F7F4F0E94411ACC2321F0CC24CA94CD
:10491000DC2C76014C2FC701B6010E94A81FCF9155
:10492000FF90EF90DF90CF9008950F931F93CF9358
:10493000DF93DC011796ED91FC911897C085D18526
:104940008E01025F1F4FC8010E949F1A8091042DA3
:10495000811116C00C501109C8010E949F1A8A8D3E
:104960009091102D981710F48093102DBBE08B9F21
:10497000C0011124B8018A5B924D0E94411A05C002
:10498000B80181E29DE20E94411AE091722DF091FE
:10499000732D9A8D828D891720F481E080930D2DDF
:1049A00001C080E0DF91CF911F910F9108950F9387
:1049B0001F93CF93DF937068FC0140835183628320
:1049C0007383C085D1850E949F1A8E010E5F1F4F91
:1049D000C8010E949F1A8A8D9091102D981710F48B
:1049E0008093102DFBE08F9FC0011124B8018A5BDA
:1049F000924D0E94411AE091722DF091732D9A8D83
:104A0000828D891718F481E080930D2DDF91CF916D
:104A10001F910F91089520910C2DFC01208340914E
:104A2000112D5091122D6091132D7091142D4183F1
:104A30005283638374830895CF92DF92EF92FF9243
:104A40000F931F93CF93DF93DB01F091A200FF93AD
:104A5000F87FF093A2004091112D5091122D60919A
:104A6000132D7091142D0D911D912D913C91139743
:104A70000F3FCFEF1C072C073C0769F1FC01C180F9
:104A8000D280E380F480E0910C2DEC01F881FE17D8
:104A900029F04C155D056E057F05F8F44C195D098C
:104AA0006E097F09401751076207730768F4FD011B
:104AB000041B150B260B370B0083118322833383D2
:104AC0000E940B2580E00AC01D921D921D921C922F
:104AD000139781E003C080E001C081E0FF91F09373
:104AE000A200DF91CF911F910F91FF90EF90DF9087
:104AF000CF90089581E080930D2D089580910F2D22
:104B0000882331F08091042D882321F080E00895DE
:104B100081E0089582E00895CF92DF92EF92FF92B4
:104B2000E091722DF091732D66857785808991894A
:104B3000E091722DF091732DA091722DB091732D93
:104B40005A962C91C12CD12C76016894C2F8C21AC5
:104B5000D108E108F108C686D786E08AF18AFF907D
:104B6000EF90DF90CF900895CF92DF92EF92FF9277
:104B70000F931F93FC014283538364837583828761
:104B800093870417150726073707C0F00C191D096E
:104B90002E093F0986859785A089B18908171907CD
:104BA0002A073B0700F5BF016E5F7F4F80917C2D88
:104BB00090917D2D0E94621A80E018C00C151D0591
:104BC0002E053F0528F44C155D056E057F0568F43C
:104BD000BF016E5F7F4F80917E2D90917F2D0E944F
:104BE000621A80E003C081E001C081E01F910F9153
:104BF000FF90EF90DF90CF900895F091A200FF9387
:104C0000F87FF093A20080917A2D90917B2D892BD3
:104C1000E9F48BE89DE20E942C1A80E89DE20E9454
:104C20002C1A8BE89DE280937E2D90937F2D80E857
:104C30009DE280937C2D90937D2D40E069E085E09E
:104C40000E948F1D80937A2D90937B2DFF91F0937E
:104C5000A2000895EF92FF920F930E94FD2580918C
:104C60007A2D90917B2D892B91F00F2EF8E7EF2E66
:104C7000FDE2FF2EF02D03E020E030E048EC50E0B4
:104C800065E270E28DE397E20E94292001C080E096
:104C90000F91FF90EF9008958F929F92AF92BF92E5
:104CA000CF92DF92EF92FF920F931F93CF93DF93F8
:104CB000CDB7DEB72997CDBFDEBFE0917A2DF09159
:104CC0007B2D309789F169832A833B834C835D83F5
:104CD0008E839F836630FCF40E947E25823069F4C7
:104CE00000E0A7019601BE016F5F7F4F80917A2D92
:104CF00090917B2D0E94C01D18C000E020E030E0A4
:104D0000A901BE016F5F7F4F80917A2D90917B2D1D
:104D10000E94C01D0AC020E0A801BE016F5F7F4F46
:104D2000CF010E94661E01C080E02996CDBFDEBF84
:104D3000DF91CF911F910F91FF90EF90DF90CF9077
:104D4000BF90AF909F908F9008952F923F924F9277
:104D50005F926F927F928F929F92AF92BF92CF920B
:104D6000DF92EF92FF920F931F93CF93DF931C017B
:104D70000E94CC212B013C018091742D9091752DC6
:104D8000A091762DB091772D481659066A067B06BC
:104D900008F054C03CC00780F085E02D80809180F1
:104DA000A280B380C085D1858E010E5F1F4FC801E0
:104DB0000E949F1AED89FE89CE0119958A8981305A
:104DC00031F58E859F85A889B989880D991DAA1D01
:104DD000BB1D88169906AA06BB0670F48A839B83BE
:104DE000AC83BD83CA87DB87B80180917E2D90910B
:104DF0007F2D0E94621A0BC0C12CD12C760100E0DD
:104E000010E0A501940160E0CE010E944C26E091E3
:104E10007E2DF0917F2D80818111BDCF80917C2DE1
:104E200090917D2D80937E2D90937F2DE0937C2D0E
:104E3000F0937D2D81E0F101808302C0F1011082A9
:104E40004092742D5092752D6092762D7092772D30
:104E5000C301B201DF91CF911F910F91FF90EF90AD
:104E6000DF90CF90BF90AF909F908F907F906F908A
:104E70005F904F903F902F900895CF93DF93CDB7E1
:104E8000DEB72E97CDBFDEBFCE0101961C01A82E46
:104E9000B32CE0917E2DF0917F2D8081882309F441
:104EA00003C10780F085E02D4080518062807380CF
:104EB0000E94C621C1010E94A5266B877C878D8731
:104EC0009E87898181115EC08B859C85AD85BE855D
:104ED00084159505A605B705E8F10E94B122E09179
:104EE0007E2DF0917F2D0780F085E02D80849184C8
:104EF000C40102960E949F1AD40152968C91529737
:104F0000813001F51E964D915D916D917C91519787
:104F1000440D551D661D771D730162010B851C85AF
:104F20002D853E85C4010E94B425882359F0C12CEB
:104F3000D12C760100E010E0A301920160E0C401F1
:104F40000E944C26D4015596ED91FC915697C401D0
:104F500019959CC020E0B301A2018B859C85AD858D
:104F6000BE85481B590B6A0B7B0B80917A2D909163
:104F70007B2D0E945D1F0E94B122811187C00E947B
:104F80008A1B84C00E94B12281C0898188236CF46D
:104F90004E815F8168857985EA81FB818C819D8165
:104FA0001995898188230CF471C08E809F80D4016B
:104FB0001C968D919C911D97892B21F0C40102961E
:104FC0000E949F1ACE010A960E94A5268B019C0181
:104FD0008981082E000C990BAA0BBB0B8A30910516
:104FE00008F054C0FC018827E250FF4F8F4F0C940B
:104FF000963FCA80DB80EC80FD80F40146855785B2
:10500000608971894C0D5D1D6E1D7F1DC4010E945C
:10501000B4258823D9F1D4015596ED91FC9156978A
:10502000C4011995F4018289813081F54A815B813F
:105030006C817D8186859785A089B1899A01AB01B4
:10504000280F391F4A1F5B1FC12CD12C760100E0AD
:1050500010E060E0C4010E944C2618C04A815B81C8
:105060006C817D81D4011E964D935D936D937C93ED
:105070005197400F511F621F731F68017901C401CE
:105080000E94B42503C0C4010E942B1A20E030E026
:10509000A9016A2D7B2D80917A2D90917B2D0E9404
:1050A000AB1E811172CFF5CE0E94C621C1010E94B4
:1050B000A5266B877C878D879E878981811162CF2A
:1050C000E0917C2DF0917D2D808121E0811120E007
:1050D000412C512C32013FCF0F931F93CF93DF937D
:1050E000CDB7DEB72997CDBFDEBFEEEFE9838A8368
:1050F0009B836C837D832E833F834887598720E081
:10510000A801BE016F5F7F4F80917A2D90917B2D1A
:105110000E94661E2996CDBFDEBFDF91CF911F9101
:105120000F910895E0E5F0E08081816080838181C6
:1051300080FFFDCF80E00E9428188EE10E941818A1
:1051400060E080E00E94221843E060E080E40E947A
:105150000918E0E5F0E0808188608083818183FF29
:10516000FDCF64E080EC0E941318E0E5F0E0808160
:105170008061808360E080E00E942218E0E5F0E03A
:10518000818184FFFDCF84E00E94281887E00E947F
:10519000181808952F923F926F927F928F929F924C
:1051A000AF92BF92CF92DF92EF92FF920F931F9335
:1051B000CF93DF9300D000D0CDB7DEB71092D82DBB
:1051C0001092D92D1092DA2D1092DB2D1092DC2D39
:1051D0001092DD2D1092DE2D1092DF2DCC24CA947A
:1051E000DC2C760100E020E041E050E060E070E07F
:1051F00080912D2E90912E2E0E946E18D090D82D39
:10520000E090D92DF090DA2D1091DB2D8091DC2DDE
:105210008E83E091DD2DED836090DE2D7090DF2D8B
:105220002D2D3E2D4F2D512F682F7E2F862D972D02
:1052300002E00E940740222E332E842E952EA62EA9
:10524000B72EC82E092FA3E00E9447400E94DD38E8
:105250009B01AC0160E070E080E89FE30E94F837BA
:105260009B01AC01609118207091192080911A2047
:1052700090911B200E94863769837A838B839C835D
:10528000222D332D482D592D6A2D7B2D8C2D902FBD
:10529000A5E00E9447400E94DD389B01AC0160E020
:1052A00070E080E89FE30E94F8379B01AC016981C0
:1052B0007A818B819C810E9487376093182070933C
:1052C000192080931A2090931B2020E030E040E8C2
:1052D00050E40E94953960931C2070931D208093A8
:1052E0001E2090931F202D2D3E2D4F2D512F6E816E
:1052F0007D81862D972DA1E00E9447402093D82DD7
:105300003093D92D4093DA2D5093DB2D6093DC2D13
:105310007093DD2D8093DE2D9093DF2D2E3736494F
:1053200048495105610571058105910509F008F4A9
:1053300055CF2696CDBFDEBFDF91CF911F910F9144
:10534000FF90EF90DF90CF90BF90AF909F908F90A5
:105350007F906F903F902F9008952F923F924F92A1
:105360005F926F927F928F929F92AF92BF92CF92F5
:10537000DF92EF92FF920F931F93CF93DF93CDB7FE
:10538000DEB72C97CDBFDEBF80911D2E90911E2ED3
:105390000E94DD231092D82D1092D92D1092DA2D73
:1053A0001092DB2D1092DC2D1092DD2D1092DE2D4F
:1053B0001092DF2DCC24CA94DC2C760100E020E092
:1053C00041E050E060E070E080912D2E90912E2E13
:1053D0000E946E181091D82D8091D92D8C879091B4
:1053E000DA2D9B870091DB2D3090DC2D2090DD2D78
:1053F000A091DE2DA983B091DF2DBA83212F382F04
:10540000492F502F632D722D8A2F9B2FA8E10E94C8
:10541000654011F008F0A8C08090102090901120F5
:10542000A0901220B090132040900C2050900D209E
:1054300060900E2070900F20A3019201C501B4016D
:105440000E94873720E030E040E05FE30E9495391A
:105450006B017C016093CE2D7093CF2D8093D02D66
:105460009093D12DA3019201C501B4010E949539F9
:105470000E94583A2B013C016093CA2D7093CB2DAA
:105480008093CC2D9093CD2D809108209091092070
:10549000A0910A20B0910B208B839C83AD83BE83A7
:1054A000212F3C854B85502F632D722D89819A8148
:1054B0000E94DD389B01AC0160E070E080E090E488
:1054C0000E94023A6F83788789879A87A70196019D
:1054D000C501B4010E9486379B01AC010E94953939
:1054E0002F81388549855A850E9495399B01AC01E9
:1054F0006B817C818D819E810E9486374B015C018E
:105500006093C62D7093C72D8093C82D9093C92D9D
:10551000A7019601C701B6010E9495392B813C81F4
:105520004D815E810E94F83760931C2070931D208E
:1055300080931E2090931F20C0921020D0921120A3
:10554000E0921220F092132040920C2050920D20F5
:1055500060920E2070920F20809208209092092075
:10556000A0920A20B0920B20212F3C854B85502F12
:10557000632D722D89819A81A1E00E94474020937A
:10558000D82D3093D92D4093DA2D5093DB2D609395
:10559000DC2D7093DD2D8093DE2D9093DF2D2E3F3B
:1055A000304E454F5540610571058105910509F063
:1055B00008F400CF2C96CDBFDEBFDF91CF911F91B5
:1055C0000F91FF90EF90DF90CF90BF90AF909F90A2
:1055D0008F907F906F905F904F903F902F900895A5
:1055E0002F923F924F925F926F927F928F929F92F3
:1055F000AF92BF92CF92DF92EF92FF920F931F93E1
:10560000CF93DF9380911F2E9091202E0E94DD2357
:1056100063EF74E085E39FE30E94790A2093B62D3F
:105620003093B72D4093B82D5093B92D6093BA2D78
:105630007093BB2D8093BC2D9093BD2D60E070E0E6
:1056400080E89EE30E94790A2093A62D3093A72D2F
:105650004093A82D5093A92D6093AA2D7093AB2D44
:105660008093AC2D9093AD2D60E070E080E89FE3D7
:105670000E94790A20930020309301204093022059
:10568000509303206093042070930520809306209C
:10569000909307201092D82D1092D92D1092DA2DC8
:1056A0001092DB2D1092DC2D1092DD2D1092DE2D4C
:1056B0001092DF2DC1E0D0E0CC24CA94DC2C76011E
:1056C00000E020E041E050E060E070E080912D2EAD
:1056D00090912E2E0E946E182091D82D3091D92DA8
:1056E0004091DA2D5091DB2D6091DC2D7091DD2DF4
:1056F0008091DE2D9091DF2DA8E10E94654011F090
:1057000008F0C8C160E070E080E090E40E94790A8F
:10571000322E432E542E652E762E872E982E292E2D
:10572000A090B62DB090B72DC090B82DD090B92DC7
:10573000E090BA2DF090BB2D0091BC2D1091BD2DA5
:1057400020910020309101204091022050910320AF
:10575000609104207091052080910620909107208F
:105760000E94360BA32CB42CC52CD62CE72CF82C7D
:10577000092D122D0E94130D2093BE2D3093BF2DA5
:105780004093C02D5093C12D6093C22D7093C32DB3
:105790008093C42D9093C52DA090B62DB090B72DB9
:1057A000C090B82DD090B92DE090BA2DF090BB2DBF
:1057B0000091BC2D1091BD2D209100203091012031
:1057C00040910220509103206091042070910520A7
:1057D00080910620909107200E940E0C0E94170EC7
:1057E0002093AE2D3093AF2D4093B02D5093B12D1B
:1057F0006093B22D7093B32D8093B42D9093B52DFB
:10580000A090BE2DB090BF2DC090C02DD090C12DC6
:10581000E090C22DF090C32D0091C42D1091C52DA4
:1058200020910020309101204091022050910320CE
:1058300060910420709105208091062090910720AE
:105840000E94CE0B322E432E542E652E762E872E9E
:10585000982E292EA090BE2DB090BF2DC090C02DA7
:10586000D090C12DE090C22DF090C32D0091C42D99
:105870001091C52D209100203091012040910220EF
:1058800050910320609104207091052080910620A2
:10589000909107200E94CE0BA32CB42CC52CD62CA3
:1058A000E72CF82C092D122D0E940E0CA22EB32EDF
:1058B000C42ED52EE62EF72E082F192F2091D82D85
:1058C0003091D92D4091DA2D5091DB2D6091DC2D56
:1058D0007091DD2D8091DE2D9091DF2D0E94DD38BD
:1058E0009B01AC0160E070E080E090E40E94023A2D
:1058F0000E94790A0E940E0CA22EB32EC42ED52E21
:10590000E62EF72E2091A62D3091A72D4091A82D9F
:105910005091A92D6091AA2D7091AB2D082F192FB0
:105920008091AC2D9091AD2D0E94CE0B20939E2D99
:1059300030939F2D4093A02D5093A12D6093A22DC5
:105940007093A32D8093A42D9093A52D3090A62D18
:105950004090A72D5090A82D6090A92D7090AA2D51
:105960008090AB2D9090AC2D2090AD2D2091BE2D30
:105970003091BF2D4091C02D5091C12D6091C22D0D
:105980007091C32D8091C42D9091C52DA22EB32E60
:10599000C42ED52EE62EF72E082F192F0E940E0C9E
:1059A000A32CB42CC52CD62CE72CF82C092D122DA9
:1059B0000E94130D2093962D3093972D4093982D90
:1059C0005093992D60939A2D70939B2D80939C2DCD
:1059D00090939D2D8091BE2D809300208091BF2DAE
:1059E000809301208091C02D809302208091C12D51
:1059F000809303208091C22D809304208091C32D39
:105A0000809305208091C42D809306208091C52D20
:105A1000809307208091AE2D8093B62D8091AF2D7D
:105A20008093B72D8091B02D8093B82D8091B12DAA
:105A30008093B92D8091B22D8093BA2D8091B32D92
:105A40008093BB2D8091B42D8093BC2D8091B52D7A
:105A50008093BD2D80919E2D8093A62D80919F2DAA
:105A60008093A72D8091A02D8093A82D8091A12DAA
:105A70008093A92D8091A22D8093AA2D8091A32D92
:105A80008093AB2D8091A42D8093AC2D8091A52D7A
:105A90008093AD2D5090D82D6090D92D7090DA2D37
:105AA0008090DB2D9090DC2DB091DD2DF091DE2DDE
:105AB000E091DF2D252D362D472D582D692D7B2F7B
:105AC0008F2F9E2FA2E00E94654029F020F0C09306
:105AD000D22DD093D32D252D362D472D582D692D20
